{
  "contractName": "escrowRBAC",
  "abi": [
    {
      "inputs": [
        {
          "internalType": "address",
          "name": "_buyer",
          "type": "address"
        },
        {
          "internalType": "address payable",
          "name": "_seller",
          "type": "address"
        }
      ],
      "stateMutability": "nonpayable",
      "type": "constructor"
    },
    {
      "anonymous": false,
      "inputs": [
        {
          "indexed": true,
          "internalType": "bytes32",
          "name": "role",
          "type": "bytes32"
        },
        {
          "indexed": true,
          "internalType": "bytes32",
          "name": "previousAdminRole",
          "type": "bytes32"
        },
        {
          "indexed": true,
          "internalType": "bytes32",
          "name": "newAdminRole",
          "type": "bytes32"
        }
      ],
      "name": "RoleAdminChanged",
      "type": "event"
    },
    {
      "anonymous": false,
      "inputs": [
        {
          "indexed": true,
          "internalType": "bytes32",
          "name": "role",
          "type": "bytes32"
        },
        {
          "indexed": true,
          "internalType": "address",
          "name": "account",
          "type": "address"
        },
        {
          "indexed": true,
          "internalType": "address",
          "name": "sender",
          "type": "address"
        }
      ],
      "name": "RoleGranted",
      "type": "event"
    },
    {
      "anonymous": false,
      "inputs": [
        {
          "indexed": true,
          "internalType": "bytes32",
          "name": "role",
          "type": "bytes32"
        },
        {
          "indexed": true,
          "internalType": "address",
          "name": "account",
          "type": "address"
        },
        {
          "indexed": true,
          "internalType": "address",
          "name": "sender",
          "type": "address"
        }
      ],
      "name": "RoleRevoked",
      "type": "event"
    },
    {
      "inputs": [],
      "name": "BUYER_ROLE",
      "outputs": [
        {
          "internalType": "bytes32",
          "name": "",
          "type": "bytes32"
        }
      ],
      "stateMutability": "view",
      "type": "function"
    },
    {
      "inputs": [],
      "name": "DEFAULT_ADMIN_ROLE",
      "outputs": [
        {
          "internalType": "bytes32",
          "name": "",
          "type": "bytes32"
        }
      ],
      "stateMutability": "view",
      "type": "function"
    },
    {
      "inputs": [],
      "name": "SELLER_ROLE",
      "outputs": [
        {
          "internalType": "bytes32",
          "name": "",
          "type": "bytes32"
        }
      ],
      "stateMutability": "view",
      "type": "function"
    },
    {
      "inputs": [],
      "name": "buyer",
      "outputs": [
        {
          "internalType": "address",
          "name": "",
          "type": "address"
        }
      ],
      "stateMutability": "view",
      "type": "function"
    },
    {
      "inputs": [],
      "name": "currState",
      "outputs": [
        {
          "internalType": "enum escrowRBAC.State",
          "name": "",
          "type": "uint8"
        }
      ],
      "stateMutability": "view",
      "type": "function"
    },
    {
      "inputs": [
        {
          "internalType": "bytes32",
          "name": "role",
          "type": "bytes32"
        }
      ],
      "name": "getRoleAdmin",
      "outputs": [
        {
          "internalType": "bytes32",
          "name": "",
          "type": "bytes32"
        }
      ],
      "stateMutability": "view",
      "type": "function"
    },
    {
      "inputs": [
        {
          "internalType": "bytes32",
          "name": "role",
          "type": "bytes32"
        },
        {
          "internalType": "uint256",
          "name": "index",
          "type": "uint256"
        }
      ],
      "name": "getRoleMember",
      "outputs": [
        {
          "internalType": "address",
          "name": "",
          "type": "address"
        }
      ],
      "stateMutability": "view",
      "type": "function"
    },
    {
      "inputs": [
        {
          "internalType": "bytes32",
          "name": "role",
          "type": "bytes32"
        }
      ],
      "name": "getRoleMemberCount",
      "outputs": [
        {
          "internalType": "uint256",
          "name": "",
          "type": "uint256"
        }
      ],
      "stateMutability": "view",
      "type": "function"
    },
    {
      "inputs": [
        {
          "internalType": "bytes32",
          "name": "role",
          "type": "bytes32"
        },
        {
          "internalType": "address",
          "name": "account",
          "type": "address"
        }
      ],
      "name": "grantRole",
      "outputs": [],
      "stateMutability": "nonpayable",
      "type": "function"
    },
    {
      "inputs": [
        {
          "internalType": "bytes32",
          "name": "role",
          "type": "bytes32"
        },
        {
          "internalType": "address",
          "name": "account",
          "type": "address"
        }
      ],
      "name": "hasRole",
      "outputs": [
        {
          "internalType": "bool",
          "name": "",
          "type": "bool"
        }
      ],
      "stateMutability": "view",
      "type": "function"
    },
    {
      "inputs": [
        {
          "internalType": "bytes32",
          "name": "role",
          "type": "bytes32"
        },
        {
          "internalType": "address",
          "name": "account",
          "type": "address"
        }
      ],
      "name": "renounceRole",
      "outputs": [],
      "stateMutability": "nonpayable",
      "type": "function"
    },
    {
      "inputs": [
        {
          "internalType": "bytes32",
          "name": "role",
          "type": "bytes32"
        },
        {
          "internalType": "address",
          "name": "account",
          "type": "address"
        }
      ],
      "name": "revokeRole",
      "outputs": [],
      "stateMutability": "nonpayable",
      "type": "function"
    },
    {
      "inputs": [],
      "name": "seller",
      "outputs": [
        {
          "internalType": "address payable",
          "name": "",
          "type": "address"
        }
      ],
      "stateMutability": "view",
      "type": "function"
    },
    {
      "inputs": [],
      "name": "deposit",
      "outputs": [],
      "stateMutability": "payable",
      "type": "function"
    },
    {
      "inputs": [],
      "name": "confirmDelivery",
      "outputs": [],
      "stateMutability": "nonpayable",
      "type": "function"
    },
    {
      "inputs": [],
      "name": "withdrawlPayment",
      "outputs": [],
      "stateMutability": "nonpayable",
      "type": "function"
    }
  ],
  "bytecode": "0x60806040523480156200001157600080fd5b506040516200139e3803806200139e833981810160405260408110156200003757600080fd5b810190808051906020019092919080519060200190929190505050620000847ff8cd32ed93fc2f9fc78152a14807c9609af3d99c5fe4dc6b106a801aaddfe90e83620000be60201b60201c565b620000b67f43f25613eb2f15fb17222a5d424ca2655743e71265d98e4b93c05e5fb589ecde82620000be60201b60201c565b505062000254565b620000d08282620000d460201b60201c565b5050565b62000102816000808581526020019081526020016000206000016200017760201b62000c331790919060201c565b15620001735762000118620001af60201b60201c565b73ffffffffffffffffffffffffffffffffffffffff168173ffffffffffffffffffffffffffffffffffffffff16837f2f8788117e7eff1d82e926ec794901d17c78024a50270940304540a733656f0d60405160405180910390a45b5050565b6000620001a7836000018373ffffffffffffffffffffffffffffffffffffffff1660001b620001b760201b60201c565b905092915050565b600033905090565b6000620001cb83836200023160201b60201c565b620002265782600001829080600181540180825580915050600190039060005260206000200160009091909190915055826000018054905083600101600084815260200190815260200160002081905550600190506200022b565b600090505b92915050565b600080836001016000848152602001908152602001600020541415905092915050565b61113a80620002646000396000f3fe6080604052600436106100f35760003560e01c80639010d07c1161008a578063ca15c87311610059578063ca15c87314610419578063d0e30db014610468578063d547741f14610472578063dbe4613d146104cd576100f3565b80639010d07c146102d857806391d1485414610347578063a217fddf146103b8578063afe01043146103e3576100f3565b806352ced544116100c657806352ced5441461023e5780635e10177b146102555780637150d8ae1461026c5780637a01a1da146102ad576100f3565b806308551a53146100f8578063248a9ca3146101395780632f2ff15d1461018857806336568abe146101e3575b600080fd5b34801561010457600080fd5b5061010d6104f8565b604051808273ffffffffffffffffffffffffffffffffffffffff16815260200191505060405180910390f35b34801561014557600080fd5b506101726004803603602081101561015c57600080fd5b810190808035906020019092919050505061051e565b6040518082815260200191505060405180910390f35b34801561019457600080fd5b506101e1600480360360408110156101ab57600080fd5b8101908080359060200190929190803573ffffffffffffffffffffffffffffffffffffffff16906020019092919050505061053d565b005b3480156101ef57600080fd5b5061023c6004803603604081101561020657600080fd5b8101908080359060200190929190803573ffffffffffffffffffffffffffffffffffffffff1690602001909291905050506105c6565b005b34801561024a57600080fd5b5061025361065f565b005b34801561026157600080fd5b5061026a6107e3565b005b34801561027857600080fd5b50610281610940565b604051808273ffffffffffffffffffffffffffffffffffffffff16815260200191505060405180910390f35b3480156102b957600080fd5b506102c2610964565b6040518082815260200191505060405180910390f35b3480156102e457600080fd5b5061031b600480360360408110156102fb57600080fd5b810190808035906020019092919080359060200190929190505050610988565b604051808273ffffffffffffffffffffffffffffffffffffffff16815260200191505060405180910390f35b34801561035357600080fd5b506103a06004803603604081101561036a57600080fd5b8101908080359060200190929190803573ffffffffffffffffffffffffffffffffffffffff1690602001909291905050506109b9565b60405180821515815260200191505060405180910390f35b3480156103c457600080fd5b506103cd6109ea565b6040518082815260200191505060405180910390f35b3480156103ef57600080fd5b506103f86109f1565b6040518082600281111561040857fe5b815260200191505060405180910390f35b34801561042557600080fd5b506104526004803603602081101561043c57600080fd5b8101908080359060200190929190505050610a04565b6040518082815260200191505060405180910390f35b610470610a2a565b005b34801561047e57600080fd5b506104cb6004803603604081101561049557600080fd5b8101908080359060200190929190803573ffffffffffffffffffffffffffffffffffffffff169060200190929190505050610b86565b005b3480156104d957600080fd5b506104e2610c0f565b6040518082815260200191505060405180910390f35b600260009054906101000a900473ffffffffffffffffffffffffffffffffffffffff1681565b6000806000838152602001908152602001600020600201549050919050565b6105636000808481526020019081526020016000206002015461055e610c63565b6109b9565b6105b8576040517f08c379a000000000000000000000000000000000000000000000000000000000815260040180806020018281038252602f815260200180611052602f913960400191505060405180910390fd5b6105c28282610c6b565b5050565b6105ce610c63565b73ffffffffffffffffffffffffffffffffffffffff168173ffffffffffffffffffffffffffffffffffffffff1614610651576040517f08c379a000000000000000000000000000000000000000000000000000000000815260040180806020018281038252602f8152602001806110d6602f913960400191505060405180910390fd5b61065b8282610cfe565b5050565b6106897f43f25613eb2f15fb17222a5d424ca2655743e71265d98e4b93c05e5fb589ecde336109b9565b6106fb576040517f08c379a00000000000000000000000000000000000000000000000000000000081526004018080602001828103825260168152602001807f43616c6c6572206973206e6f7420612073656c6c65720000000000000000000081525060200191505060405180910390fd5b60028081111561070757fe5b600160009054906101000a900460ff16600281111561072257fe5b14610778576040517f08c379a00000000000000000000000000000000000000000000000000000000081526004018080602001828103825260258152602001806110816025913960400191505060405180910390fd5b600260009054906101000a900473ffffffffffffffffffffffffffffffffffffffff1673ffffffffffffffffffffffffffffffffffffffff166108fc479081150290604051600060405180830381858888f193505050501580156107e0573d6000803e3d6000fd5b50565b61080d7ff8cd32ed93fc2f9fc78152a14807c9609af3d99c5fe4dc6b106a801aaddfe90e336109b9565b61087f576040517f08c379a00000000000000000000000000000000000000000000000000000000081526004018080602001828103825260158152602001807f43616c6c6572206973206e6f742061206275796572000000000000000000000081525060200191505060405180910390fd5b6001600281111561088c57fe5b600160009054906101000a900460ff1660028111156108a757fe5b1461091a576040517f08c379a00000000000000000000000000000000000000000000000000000000081526004018080602001828103825260178152602001807f43616e6e6f7420636f6e6669726d2064656c697665727900000000000000000081525060200191505060405180910390fd5b6002600160006101000a81548160ff0219169083600281111561093957fe5b0217905550565b60018054906101000a900473ffffffffffffffffffffffffffffffffffffffff1681565b7ff8cd32ed93fc2f9fc78152a14807c9609af3d99c5fe4dc6b106a801aaddfe90e81565b60006109b182600080868152602001908152602001600020600001610d9190919063ffffffff16565b905092915050565b60006109e282600080868152602001908152602001600020600001610dab90919063ffffffff16565b905092915050565b6000801b81565b600160009054906101000a900460ff1681565b6000610a23600080848152602001908152602001600020600001610ddb565b9050919050565b610a547ff8cd32ed93fc2f9fc78152a14807c9609af3d99c5fe4dc6b106a801aaddfe90e336109b9565b610ac6576040517f08c379a00000000000000000000000000000000000000000000000000000000081526004018080602001828103825260158152602001807f43616c6c6572206973206e6f742061206275796572000000000000000000000081525060200191505060405180910390fd5b60006002811115610ad357fe5b600160009054906101000a900460ff166002811115610aee57fe5b14610b61576040517f08c379a000000000000000000000000000000000000000000000000000000000815260040180806020018281038252600c8152602001807f416c72656164792070616964000000000000000000000000000000000000000081525060200191505060405180910390fd5b60018060006101000a81548160ff02191690836002811115610b7f57fe5b0217905550565b610bac60008084815260200190815260200160002060020154610ba7610c63565b6109b9565b610c01576040517f08c379a00000000000000000000000000000000000000000000000000000000081526004018080602001828103825260308152602001806110a66030913960400191505060405180910390fd5b610c0b8282610cfe565b5050565b7f43f25613eb2f15fb17222a5d424ca2655743e71265d98e4b93c05e5fb589ecde81565b6000610c5b836000018373ffffffffffffffffffffffffffffffffffffffff1660001b610df0565b905092915050565b600033905090565b610c9281600080858152602001908152602001600020600001610c3390919063ffffffff16565b15610cfa57610c9f610c63565b73ffffffffffffffffffffffffffffffffffffffff168173ffffffffffffffffffffffffffffffffffffffff16837f2f8788117e7eff1d82e926ec794901d17c78024a50270940304540a733656f0d60405160405180910390a45b5050565b610d2581600080858152602001908152602001600020600001610e6090919063ffffffff16565b15610d8d57610d32610c63565b73ffffffffffffffffffffffffffffffffffffffff168173ffffffffffffffffffffffffffffffffffffffff16837ff6391f5c32d9c69d2a47ea670b442974b53935d1edc7fd64eb21e047a839171b60405160405180910390a45b5050565b6000610da08360000183610e90565b60001c905092915050565b6000610dd3836000018373ffffffffffffffffffffffffffffffffffffffff1660001b610f13565b905092915050565b6000610de982600001610f36565b9050919050565b6000610dfc8383610f13565b610e55578260000182908060018154018082558091505060019003906000526020600020016000909190919091505582600001805490508360010160008481526020019081526020016000208190555060019050610e5a565b600090505b92915050565b6000610e88836000018373ffffffffffffffffffffffffffffffffffffffff1660001b610f47565b905092915050565b600081836000018054905011610ef1576040517f08c379a00000000000000000000000000000000000000000000000000000000081526004018080602001828103825260228152602001806110306022913960400191505060405180910390fd5b826000018281548110610f0057fe5b9060005260206000200154905092915050565b600080836001016000848152602001908152602001600020541415905092915050565b600081600001805490509050919050565b600080836001016000848152602001908152602001600020549050600081146110235760006001820390506000600186600001805490500390506000866000018281548110610f9257fe5b9060005260206000200154905080876000018481548110610faf57fe5b9060005260206000200181905550600183018760010160008381526020019081526020016000208190555086600001805480610fe757fe5b60019003818190600052602060002001600090559055866001016000878152602001908152602001600020600090556001945050505050611029565b60009150505b9291505056fe456e756d657261626c655365743a20696e646578206f7574206f6620626f756e6473416363657373436f6e74726f6c3a2073656e646572206d75737420626520616e2061646d696e20746f206772616e7443616e6e6f7420636f6e6669726d206974656d20686173206265656e207265636569766564416363657373436f6e74726f6c3a2073656e646572206d75737420626520616e2061646d696e20746f207265766f6b65416363657373436f6e74726f6c3a2063616e206f6e6c792072656e6f756e636520726f6c657320666f722073656c66a2646970667358221220e9349a762549a57ea9bc7c60559f994c5236ad64e6b1561e8a6b1133ab1f18fc64736f6c63430007060033",
  "immutableReferences": {},
  "source": "// SPDX-License-Identifier: MIT\npragma solidity >=0.4.22 <0.9.0;\n\nimport \"@openzeppelin/contracts/access/AccessControl.sol\";\n\ncontract escrowRBAC is AccessControl {\n  bytes32 public constant BUYER_ROLE = keccak256(\"BUYER_ROLE\");\n  bytes32 public constant SELLER_ROLE = keccak256(\"SELLER_ROLE\");\n\n  enum State { AWAITING_PAYMENT, AWAITING_DELIVERY, COMPLETE }\n\n  State public currState;\n\n  address public buyer;\n  address payable public seller;\n\n\n  constructor(address _buyer, address payable _seller) public {\n    _setupRole(BUYER_ROLE, _buyer);\n    _setupRole(SELLER_ROLE, _seller);\n  }\n\n  function deposit() external payable {\n    require(hasRole(BUYER_ROLE, msg.sender), \"Caller is not a buyer\");\n    require(currState == State.AWAITING_PAYMENT, \"Already paid\");\n    currState = State.AWAITING_DELIVERY;\n  }\n\n  function confirmDelivery() external {\n    require(hasRole(BUYER_ROLE, msg.sender), \"Caller is not a buyer\");\n    require(currState == State.AWAITING_DELIVERY, \"Cannot confirm delivery\");\n\n    currState = State.COMPLETE;\n  }\n\n  function withdrawlPayment() external{\n    require(hasRole(SELLER_ROLE, msg.sender), \"Caller is not a seller\");\n    require(currState == State.COMPLETE, \"Cannot confirm item has been received\");\n    seller.transfer(address(this).balance);\n  }\n}",
  "sourcePath": "C:/Users/User/Desktop/AFR/Semester-2/Design Patterns/labs/Escrow-RBAC/contracts/escrowRBAC.sol",
  "compiler": {
    "name": "solc",
    "version": "0.7.6+commit.7338295f.Emscripten.clang"
  },
  "schemaVersion": "3.3.3",
  "updatedAt": "2021-02-15T15:14:50.404Z",
  "devdoc": {
    "kind": "dev",
    "methods": {
      "getRoleAdmin(bytes32)": {
        "details": "Returns the admin role that controls `role`. See {grantRole} and {revokeRole}. To change a role's admin, use {_setRoleAdmin}."
      },
      "getRoleMember(bytes32,uint256)": {
        "details": "Returns one of the accounts that have `role`. `index` must be a value between 0 and {getRoleMemberCount}, non-inclusive. Role bearers are not sorted in any particular way, and their ordering may change at any point. WARNING: When using {getRoleMember} and {getRoleMemberCount}, make sure you perform all queries on the same block. See the following https://forum.openzeppelin.com/t/iterating-over-elements-on-enumerableset-in-openzeppelin-contracts/2296[forum post] for more information."
      },
      "getRoleMemberCount(bytes32)": {
        "details": "Returns the number of accounts that have `role`. Can be used together with {getRoleMember} to enumerate all bearers of a role."
      },
      "grantRole(bytes32,address)": {
        "details": "Grants `role` to `account`. If `account` had not been already granted `role`, emits a {RoleGranted} event. Requirements: - the caller must have ``role``'s admin role."
      },
      "hasRole(bytes32,address)": {
        "details": "Returns `true` if `account` has been granted `role`."
      },
      "renounceRole(bytes32,address)": {
        "details": "Revokes `role` from the calling account. Roles are often managed via {grantRole} and {revokeRole}: this function's purpose is to provide a mechanism for accounts to lose their privileges if they are compromised (such as when a trusted device is misplaced). If the calling account had been granted `role`, emits a {RoleRevoked} event. Requirements: - the caller must be `account`."
      },
      "revokeRole(bytes32,address)": {
        "details": "Revokes `role` from `account`. If `account` had been granted `role`, emits a {RoleRevoked} event. Requirements: - the caller must have ``role``'s admin role."
      }
    },
    "version": 1
  },
  "userdoc": {
    "kind": "user",
    "methods": {},
    "version": 1
  }
}