{
  "contractName": "escrowRBAC",
  "abi": [
    {
      "inputs": [
        {
          "internalType": "address",
          "name": "_buyer",
          "type": "address"
        },
        {
          "internalType": "address payable",
          "name": "_seller",
          "type": "address"
        }
      ],
      "stateMutability": "nonpayable",
      "type": "constructor"
    },
    {
      "inputs": [],
      "name": "buyer",
      "outputs": [
        {
          "internalType": "address",
          "name": "",
          "type": "address"
        }
      ],
      "stateMutability": "view",
      "type": "function"
    },
    {
      "inputs": [],
      "name": "currState",
      "outputs": [
        {
          "internalType": "enum escrowRBAC.State",
          "name": "",
          "type": "uint8"
        }
      ],
      "stateMutability": "view",
      "type": "function"
    },
    {
      "inputs": [],
      "name": "seller",
      "outputs": [
        {
          "internalType": "address payable",
          "name": "",
          "type": "address"
        }
      ],
      "stateMutability": "view",
      "type": "function"
    },
    {
      "inputs": [],
      "name": "deposit",
      "outputs": [],
      "stateMutability": "payable",
      "type": "function"
    },
    {
      "inputs": [],
      "name": "confirmDelivery",
      "outputs": [],
      "stateMutability": "nonpayable",
      "type": "function"
    }
  ],
  "bytecode": "0x608060405234801561001057600080fd5b506040516106073803806106078339818101604052604081101561003357600080fd5b81019080805190602001909291908051906020019092919050505081600060016101000a81548173ffffffffffffffffffffffffffffffffffffffff021916908373ffffffffffffffffffffffffffffffffffffffff16021790555080600160006101000a81548173ffffffffffffffffffffffffffffffffffffffff021916908373ffffffffffffffffffffffffffffffffffffffff1602179055505050610526806100e16000396000f3fe60806040526004361061004a5760003560e01c806308551a531461004f5780635e10177b146100905780637150d8ae146100a7578063afe01043146100e8578063d0e30db01461011e575b600080fd5b34801561005b57600080fd5b50610064610128565b604051808273ffffffffffffffffffffffffffffffffffffffff16815260200191505060405180910390f35b34801561009c57600080fd5b506100a561014e565b005b3480156100b357600080fd5b506100bc610338565b604051808273ffffffffffffffffffffffffffffffffffffffff16815260200191505060405180910390f35b3480156100f457600080fd5b506100fd61035e565b6040518082600281111561010d57fe5b815260200191505060405180910390f35b61012661036f565b005b600160009054906101000a900473ffffffffffffffffffffffffffffffffffffffff1681565b600060019054906101000a900473ffffffffffffffffffffffffffffffffffffffff1673ffffffffffffffffffffffffffffffffffffffff163373ffffffffffffffffffffffffffffffffffffffff1614610211576040517f08c379a000000000000000000000000000000000000000000000000000000000815260040180806020018281038252601f8152602001807f4f6e6c792062757965722063616e2063616c6c2074686973206d6574686f640081525060200191505060405180910390fd5b6001600281111561021e57fe5b60008054906101000a900460ff16600281111561023757fe5b146102aa576040517f08c379a00000000000000000000000000000000000000000000000000000000081526004018080602001828103825260178152602001807f43616e6e6f7420636f6e6669726d2064656c697665727900000000000000000081525060200191505060405180910390fd5b600160009054906101000a900473ffffffffffffffffffffffffffffffffffffffff1673ffffffffffffffffffffffffffffffffffffffff166108fc479081150290604051600060405180830381858888f19350505050158015610312573d6000803e3d6000fd5b5060026000806101000a81548160ff0219169083600281111561033157fe5b0217905550565b600060019054906101000a900473ffffffffffffffffffffffffffffffffffffffff1681565b60008054906101000a900460ff1681565b600060019054906101000a900473ffffffffffffffffffffffffffffffffffffffff1673ffffffffffffffffffffffffffffffffffffffff163373ffffffffffffffffffffffffffffffffffffffff1614610432576040517f08c379a000000000000000000000000000000000000000000000000000000000815260040180806020018281038252601f8152602001807f4f6e6c792062757965722063616e2063616c6c2074686973206d6574686f640081525060200191505060405180910390fd5b6000600281111561043f57fe5b60008054906101000a900460ff16600281111561045857fe5b146104cb576040517f08c379a000000000000000000000000000000000000000000000000000000000815260040180806020018281038252600c8152602001807f416c72656164792070616964000000000000000000000000000000000000000081525060200191505060405180910390fd5b60016000806101000a81548160ff021916908360028111156104e957fe5b021790555056fea2646970667358221220065ad2afafd3a7a8ce6130c64e695a287b61d7d8416d43018f31081c128aef2f64736f6c63430007060033",
  "immutableReferences": {},
  "source": "// SPDX-License-Identifier: MIT\npragma solidity >=0.4.22 <0.9.0;\n\nimport \"@openzeppelin/contracts/access/AccessControl.sol\";\n\ncontract escrowRBAC {\n\n  enum State { AWAITING_PAYMENT, AWAITING_DELIVERY, COMPLETE }\n\n  State public currState;\n\n  address public buyer;\n  address payable public seller;\n\n  modifier onlyBuyer() {\n    require(msg.sender == buyer, \"Only buyer can call this method\");\n    _;\n  }\n\n  constructor(address _buyer, address payable _seller) public {\n    buyer = _buyer;\n    seller = _seller;\n  }\n\n  function deposit() onlyBuyer external payable {\n    require(currState == State.AWAITING_PAYMENT, \"Already paid\");\n    currState = State.AWAITING_DELIVERY;\n  }\n\n  function confirmDelivery() onlyBuyer external {\n    require(currState == State.AWAITING_DELIVERY, \"Cannot confirm delivery\");\n    seller.transfer(address(this).balance);\n    currState = State.COMPLETE;\n  }\n}",
  "sourcePath": "C:/Users/User/Desktop/AFR/Semester-2/Design Patterns/labs/Escrow-RBAC/contracts/escrowRBAC.sol",
  "compiler": {
    "name": "solc",
    "version": "0.7.6+commit.7338295f.Emscripten.clang"
  },
  "schemaVersion": "3.3.3",
  "updatedAt": "2021-02-15T13:56:22.778Z",
  "devdoc": {
    "kind": "dev",
    "methods": {},
    "version": 1
  },
  "userdoc": {
    "kind": "user",
    "methods": {},
    "version": 1
  }
}